{"abi":[{"type":"constructor","inputs":[{"name":"protocol_","type":"address","internalType":"contract MockProtocol"}],"stateMutability":"nonpayable"},{"type":"function","name":"assertionCheckBool","inputs":[],"outputs":[{"name":"","type":"bool","internalType":"bool"}],"stateMutability":"view"},{"type":"function","name":"triggers","inputs":[],"outputs":[],"stateMutability":"view"}],"bytecode":{"object":"0x60a0604052348015600e575f5ffd5b5060405161023a38038061023a833981016040819052602b91603b565b6001600160a01b03166080526066565b5f60208284031215604a575f5ffd5b81516001600160a01b0381168114605f575f5ffd5b9392505050565b6080516101bd61007d5f395f606101526101bd5ff3fe608060405234801561000f575f5ffd5b5060043610610034575f3560e01c80630f04ec21146100385780637bbb19dc14610054575b5f5ffd5b61004061005e565b604051901515815260200160405180910390f35b61005c6100e4565b005b5f7f00000000000000000000000000000000000000000000000000000000000000006001600160a01b031663238cd4716040518163ffffffff1660e01b8152600401602060405180830381865afa1580156100bb573d5f5f3e3d5ffd5b505050506040513d601f19601f820116820180604052508101906100df9190610161565b905090565b6100f4630f04ec2160e01b6100f6565b565b6040516337f34f8f60e21b81526001600160e01b0319821660048201527355bb9ad8dc1ee06d47279fc2b23cd755b7f2d3269063dfcd3e3c906024015f6040518083038186803b158015610148575f5ffd5b505afa15801561015a573d5f5f3e3d5ffd5b5050505050565b5f60208284031215610171575f5ffd5b81518015158114610180575f5ffd5b939250505056fea2646970667358221220f3ceab89da27fe29a51867e4e5236fbc05a5ad33768019a5f79b3722e66d4a3364736f6c634300081c0033","linkReferences":{}},"methodIdentifiers":{"assertionCheckBool()":"0f04ec21","triggers()":"7bbb19dc"},"id":0}